{
  "contractName": "ContactsContract",
  "abi": [
    {
      "inputs": [],
      "payable": false,
      "stateMutability": "nonpayable",
      "type": "constructor"
    },
    {
      "anonymous": false,
      "inputs": [
        {
          "indexed": false,
          "internalType": "uint256",
          "name": "_id",
          "type": "uint256"
        }
      ],
      "name": "ContactAdded",
      "type": "event"
    },
    {
      "anonymous": false,
      "inputs": [
        {
          "indexed": false,
          "internalType": "uint256",
          "name": "_id",
          "type": "uint256"
        }
      ],
      "name": "ContactDeleted",
      "type": "event"
    },
    {
      "anonymous": false,
      "inputs": [
        {
          "indexed": false,
          "internalType": "uint256",
          "name": "_id",
          "type": "uint256"
        }
      ],
      "name": "ContactEdited",
      "type": "event"
    },
    {
      "constant": true,
      "inputs": [],
      "name": "contactCount",
      "outputs": [
        {
          "internalType": "uint256",
          "name": "",
          "type": "uint256"
        }
      ],
      "payable": false,
      "stateMutability": "view",
      "type": "function"
    },
    {
      "constant": true,
      "inputs": [
        {
          "internalType": "uint256",
          "name": "",
          "type": "uint256"
        }
      ],
      "name": "contacts",
      "outputs": [
        {
          "internalType": "uint256",
          "name": "id",
          "type": "uint256"
        },
        {
          "internalType": "string",
          "name": "name",
          "type": "string"
        },
        {
          "internalType": "string",
          "name": "company",
          "type": "string"
        },
        {
          "internalType": "string",
          "name": "phone",
          "type": "string"
        }
      ],
      "payable": false,
      "stateMutability": "view",
      "type": "function"
    },
    {
      "constant": true,
      "inputs": [],
      "name": "getCount",
      "outputs": [
        {
          "internalType": "uint256",
          "name": "",
          "type": "uint256"
        }
      ],
      "payable": false,
      "stateMutability": "view",
      "type": "function"
    },
    {
      "constant": false,
      "inputs": [
        {
          "internalType": "string",
          "name": "_name",
          "type": "string"
        },
        {
          "internalType": "string",
          "name": "_company",
          "type": "string"
        },
        {
          "internalType": "string",
          "name": "_phone",
          "type": "string"
        }
      ],
      "name": "addContact",
      "outputs": [],
      "payable": false,
      "stateMutability": "nonpayable",
      "type": "function"
    },
    {
      "constant": false,
      "inputs": [
        {
          "internalType": "uint256",
          "name": "_id",
          "type": "uint256"
        }
      ],
      "name": "deleteContact",
      "outputs": [],
      "payable": false,
      "stateMutability": "nonpayable",
      "type": "function"
    },
    {
      "constant": false,
      "inputs": [
        {
          "internalType": "uint256",
          "name": "_id",
          "type": "uint256"
        },
        {
          "internalType": "string",
          "name": "_name",
          "type": "string"
        },
        {
          "internalType": "string",
          "name": "_company",
          "type": "string"
        },
        {
          "internalType": "string",
          "name": "_phone",
          "type": "string"
        }
      ],
      "name": "editContact",
      "outputs": [],
      "payable": false,
      "stateMutability": "nonpayable",
      "type": "function"
    }
  ],
  "bytecode": "0x608060405234801561001057600080fd5b5060008081905550610bd2806100276000396000f3fe608060405234801561001057600080fd5b506004361061007f576000357c0100000000000000000000000000000000000000000000000000000000900480631f5c179214610084578063a87d942c14610277578063b9ed6fca14610295578063d341a402146102c3578063e0f478cb146104ac578063f0e5b0e014610632575b600080fd5b6102756004803603608081101561009a57600080fd5b8101908080359060200190929190803590602001906401000000008111156100c157600080fd5b8201836020820111156100d357600080fd5b803590602001918460018302840111640100000000831117156100f557600080fd5b91908080601f016020809104026020016040519081016040528093929190818152602001838380828437600081840152601f19601f8201169050808301925050505050505091929192908035906020019064010000000081111561015857600080fd5b82018360208201111561016a57600080fd5b8035906020019184600183028401116401000000008311171561018c57600080fd5b91908080601f016020809104026020016040519081016040528093929190818152602001838380828437600081840152601f19601f820116905080830192505050505050509192919290803590602001906401000000008111156101ef57600080fd5b82018360208201111561020157600080fd5b8035906020019184600183028401116401000000008311171561022357600080fd5b91908080601f016020809104026020016040519081016040528093929190818152602001838380828437600081840152601f19601f820116905080830192505050505050509192919290505050610650565b005b61027f610725565b6040518082815260200191505060405180910390f35b6102c1600480360360208110156102ab57600080fd5b810190808035906020019092919050505061072e565b005b6104aa600480360360608110156102d957600080fd5b81019080803590602001906401000000008111156102f657600080fd5b82018360208201111561030857600080fd5b8035906020019184600183028401116401000000008311171561032a57600080fd5b91908080601f016020809104026020016040519081016040528093929190818152602001838380828437600081840152601f19601f8201169050808301925050505050505091929192908035906020019064010000000081111561038d57600080fd5b82018360208201111561039f57600080fd5b803590602001918460018302840111640100000000831117156103c157600080fd5b91908080601f016020809104026020016040519081016040528093929190818152602001838380828437600081840152601f19601f8201169050808301925050505050505091929192908035906020019064010000000081111561042457600080fd5b82018360208201111561043657600080fd5b8035906020019184600183028401116401000000008311171561045857600080fd5b91908080601f016020809104026020016040519081016040528093929190818152602001838380828437600081840152601f19601f8201169050808301925050505050505091929192905050506107c8565b005b6104d8600480360360208110156104c257600080fd5b81019080803590602001909291905050506108b2565b60405180858152602001806020018060200180602001848103845287818151815260200191508051906020019080838360005b8381101561052657808201518184015260208101905061050b565b50505050905090810190601f1680156105535780820380516001836020036101000a031916815260200191505b50848103835286818151815260200191508051906020019080838360005b8381101561058c578082015181840152602081019050610571565b50505050905090810190601f1680156105b95780820380516001836020036101000a031916815260200191505b50848103825285818151815260200191508051906020019080838360005b838110156105f25780820151818401526020810190506105d7565b50505050905090810190601f16801561061f5780820380516001836020036101000a031916815260200191505b5097505050505050505060405180910390f35b61063a610aaa565b6040518082815260200191505060405180910390f35b604051806080016040528085815260200184815260200183815260200182815250600160008681526020019081526020016000206000820151816000015560208201518160010190805190602001906106aa929190610ab0565b5060408201518160020190805190602001906106c7929190610ab0565b5060608201518160030190805190602001906106e4929190610ab0565b509050507fcc0986c1548f93e9d6208abfc69d2915f25e046470af0310e56f3c365427f8d6846040518082815260200191505060405180910390a150505050565b60008054905090565b6001600082815260200190815260200160002060008082016000905560018201600061075a9190610b30565b60028201600061076a9190610b30565b60038201600061077a9190610b30565b50506000808154809291906001900391905055507fa3c745e32bb55cfe98a4a89c04153df8d2ffea0e5a57289f08bd2d9ebdf52010816040518082815260200191505060405180910390a150565b60405180608001604052806000548152602001848152602001838152602001828152506001600080548152602001908152602001600020600082015181600001556020820151816001019080519060200190610825929190610ab0565b506040820151816002019080519060200190610842929190610ab0565b50606082015181600301908051906020019061085f929190610ab0565b509050507f60da173734e634b435b89d21dbdee2234cd9f870cd0f38bba3eb1d8489decd8d6000546040518082815260200191505060405180910390a16000808154809291906001019190505550505050565b6001602052806000526040600020600091509050806000015490806001018054600181600116156101000203166002900480601f0160208091040260200160405190810160405280929190818152602001828054600181600116156101000203166002900480156109645780601f1061093957610100808354040283529160200191610964565b820191906000526020600020905b81548152906001019060200180831161094757829003601f168201915b505050505090806002018054600181600116156101000203166002900480601f016020809104026020016040519081016040528092919081815260200182805460018160011615610100020316600290048015610a025780601f106109d757610100808354040283529160200191610a02565b820191906000526020600020905b8154815290600101906020018083116109e557829003601f168201915b505050505090806003018054600181600116156101000203166002900480601f016020809104026020016040519081016040528092919081815260200182805460018160011615610100020316600290048015610aa05780601f10610a7557610100808354040283529160200191610aa0565b820191906000526020600020905b815481529060010190602001808311610a8357829003601f168201915b5050505050905084565b60005481565b828054600181600116156101000203166002900490600052602060002090601f016020900481019282601f10610af157805160ff1916838001178555610b1f565b82800160010185558215610b1f579182015b82811115610b1e578251825591602001919060010190610b03565b5b509050610b2c9190610b78565b5090565b50805460018160011615610100020316600290046000825580601f10610b565750610b75565b601f016020900490600052602060002090810190610b749190610b78565b5b50565b610b9a91905b80821115610b96576000816000905550600101610b7e565b5090565b9056fea265627a7a723158200defd62816a7cb03d3955e31867e709c07eced47d77aab3538c7ee6cba88017564736f6c63430005100032",
  "source": "// SPDX-License-Identifier: GPL-3.0\r\npragma solidity ^0.5.16;\r\n\r\ncontract ContactsContract {\r\n    uint256 public contactCount;\r\n\r\n    struct Contact {\r\n        uint256 id;\r\n        string name;\r\n        string company;\r\n        string phone;\r\n    }\r\n\r\n    mapping(uint256 => Contact) public contacts;\r\n\r\n    constructor() public{\r\n        contactCount = 0;\r\n    }\r\n\r\n    event ContactAdded(uint256 _id);\r\n    event ContactDeleted(uint256 _id);\r\n    event ContactEdited(uint256 _id);\r\n\r\n    function getCount() public view returns (uint256 ){\r\n        return contactCount;\r\n    }\r\n\r\n    function addContact(\r\n        string memory _name,\r\n        string memory _company,\r\n        string memory _phone\r\n    ) public {\r\n        contacts[contactCount] = Contact(\r\n            contactCount,\r\n            _name,\r\n            _company,\r\n            _phone\r\n        );\r\n        emit ContactAdded(contactCount);\r\n        contactCount++;\r\n    }\r\n\r\n    function deleteContact(uint256 _id) public {\r\n        delete contacts[_id];\r\n        contactCount--;\r\n        emit ContactDeleted(_id);\r\n    }\r\n\r\n    function editContact(\r\n        uint256 _id,\r\n        string memory _name,\r\n        string memory _company,\r\n        string memory _phone\r\n    ) public {\r\n        contacts[_id] = Contact(_id, _name, _company, _phone);\r\n        emit ContactEdited(_id);\r\n    }\r\n\r\n}\r\n",
  "sourcePath": "D:\\web3projects\\trufflesample\\contracts\\ContactsContract.sol",
  "compiler": {
    "name": "solc",
    "version": "0.5.16+commit.9c3226ce.Emscripten.clang"
  },
  "schemaVersion": "3.4.12",
  "updatedAt": "2023-02-28T05:39:59.495Z",
  "networkType": "ethereum",
  "devdoc": {
    "methods": {}
  },
  "userdoc": {
    "methods": {}
  }
}